S01700007A697A68756F5F6D6163726F7061642E73726563BE
S11300000C9456000C9460000C9460000C946000F6
S11300100C9460000C9460000C9460000C946000DC
S11300200C9460000C9460000C9460000C946000CC
S11300300C9460000C9460000C9460000C946000BC
S11300400C9460000C9460000C9460000C946000AC
S11300500C9460000C9460000C9460000C9460009C
S11300600C9460000C9460000C9460000C9460008C
S11300700C9460000C9460000C9460000C9460007C
S11300800C9460000C9460000C9460000C9460006C
S11300900C9460000C9460000C9460000C9460005C
S11300A00C9460000C9460000C94600011241FBE3A
S11300B0CFEFDAE0DEBFCDBF0E9472000C94740073
S11300C00C9400008FEF8AB91BB88BB180958BB963
S11300D02FEF83ED90E3215080409040E1F700C082
S10F00E00000F3CF0E946200F894FFCFF0
S9030000FC
