:100000000C9456000C946B000C946B000C946B00D9
:100010000C946B000C946B000C946B000C946B00B4
:100020000C946B000C946B000C946B000C946B00A4
:100030000C946B000C946B000C946B000C946B0094
:100040000C946B000C946B000C946B000C946B0084
:100050000C946B000C946B000C946B000C946B0074
:100060000C946B000C946B000C946B000C946B0064
:100070000C946B000C946B000C946B000C946B0054
:100080000C946B000C946B000C946B000C946B0044
:100090000C946B000C946B000C946B000C946B0034
:1000A0000C946B000C946B000C946B0011241FBE1D
:1000B000CFEFDAE0DEBFCDBF11E0A0E0B1E0E2E6D5
:1000C000F1E002C005900D92A630B107D9F70E9469
:1000D0006D000C94AF000C940000CF93DF9300D020
:1000E00000D000D0CDB7DEB78FEF8AB91BB80E9421
:1000F0008700CE0101960E948B002FEF83ED90E3E5
:10010000215080409040E1F700C00000F2CF14B8C9
:100110008FEF85B90895CF93DF93EC0183B190E021
:1001200019C0292F30E0FE01E20FF31FB9016F5F04
:100130007F4F482F50E002C0559547956A95E2F7EA
:1001400040FD05C020503F4FD9012C9101C020E057
:1001500020839F5F963028F3DF91CF910895F89424
:02016000FFCFCF
:0601620004050607080970
:00000001FF
