S01000004669726D776172652E73726563D7
S11300000C9456000C9473000C9473000C947300BD
S11300100C9473000C9473000C9473000C94730090
S11300200C9473000C9473000C9417010C947300DB
S11300300C9473000C9473000C9473000C94730070
S11300400C9473000C9473000C9473000C94730060
S11300500C9473000C9473000C9473000C94730050
S11300600C9473000C9473000C9473000C94730040
S11300700C9473000C9473000C9473000C94730030
S11300800C9473000C9473000C9473000C94730020
S11300900C9473000C9473000C9473000C94730010
S11300A00C9473000C9473000C94730011241FBE01
S11300B0CFEFDAE0DEBFCDBF11E0A0E0B1E0E2ECCB
S11300C0F3E002C005900D92A031B107D9F721E009
S11300D0A0E1B1E001C01D92A532B207E1F70E9490
S11300E075000C94DF010C940000CF93DF931F92F2
S11300F0CDB7DEB70E949400198240E050E0BE0103
S11301006F5F7F4F86EA0E94BC00FFCF0895089579
S113011080910E0190910F01009729F0019790931F
S11301200F0180930E0108958CE08093B80084E061
S11301308093BC00089584EA8093BC008091BC0045
S11301408823E4F7089584E98093BC000895880F18
S11301508093BB0084E88093BC008091BC0088231A
S1130160E4F708958093BB0084E88093BC008091F9
S1130170BC008823E4F70895EF92FF920F931F9336
S1130180CF93DF93C82F7B018A010E949B008CE3ED
S11301900E94A7008C2F0E94B200C0E0D0E007C0EC
S11301A0F701EC0FFD1F80810E94B2002196C01759
S11301B0D107B0F30E94A300DF91CF911F910F915B
S11301C0FF90EF900895982F29C0292F2F70209326
S11301D0E900981739F07091EC002091ED005091EE
S11301E0F00003C0242F762F50E021FF16C0EBEE61
S11301F0F0E030813E7F3083ADEEB0E03C913D7F56
S11302003C933081316030837093EC002C93509395
S1130210F0002091EE00222344F49F5F9730A8F26F
S11302208F708093E90081E0089580E008951F9223
S11302300F920FB60F9211242F933F934F935F9316
S11302406F937F938F939F93AF93BF93EF93FF939A
S11302508091E10082FF0BC08091E20082FF07C021
S1130260E1EEF0E080818B7F80830E9488008091A2
S1130270DA0080FF1FC08091D80080FF1BC0EAED28
S1130280F0E080818E7F80838091D90080FF0DC053
S113029080E189BD82E189BD09B400FEFDCF81E022
S11302A080931C010E94860005C019BC10921C0199
S11302B00E9487008091E10080FF17C08091E200D6
S11302C080FF13C0E2EEF0E080818E7F8083808126
S11302D080618083E8EDF0E080818062808319BCD6
S11302E085E080931C010E94DE018091E10084FF7F
S11302F030C08091E20084FF2CC080E189BD82E19E
S113030089BD09B400FEFDCFE8EDF0E080818F7D6A
S11303108083E1EEF0E080818F7E8083E2EEF0E086
S113032080818F7E808380818160808380911801A9
S1130330882321F084E080931C0109C08091E300AC
S1130340882314F483E001C081E080931C010E949F
S1130350DE018091E10083FF20C08091E20083FFF1
S11303601CC0E1EEF0E08081877F808382E080938F
S11303701C011092180180818E7F8083E2EEF0E0F0
S113038080818E7F808380818061808342E060E011
S113039080E00E94E3000E94DE01FF91EF91BF9193
S11303A0AF919F918F917F916F915F914F913F9109
S11303B02F910F900FBE0F901F9018950895F894E9
S10503C0FFCF69
S11303C20081080000011001080000000000000084
S9030000FC
