:100000000C94D4000C94F1000C94F1000C94F100C9
:100010000C94F1000C94F1000C94F1000C94F1009C
:100020000C94F1000C94F1000C94E7050C94F10091
:100030000C94F1000C94F1000C94F1000C94F1007C
:100040000C94F1000C94F1000C94F1000C94F1006C
:100050000C94F1000C94F1000C94F1000C94F1005C
:100060000C94F1000C94F1000C94F1000C94F1004C
:100070000C94F1000C94F1000C94F1000C94F1003C
:100080000C94F1000C94F1000C94F1000C94F1002C
:100090000C94F1000C94F1000C94F1000C94F1001C
:1000A0000C94F1000C94F1000C94F1002908300834
:1000B0004B0830084B0837083C084B0842084708F3
:1000C00032035A0069007A00680075006F00200052
:1000D00042006900720074006800640061007900E9
:1000E00020004D006100630072006F00700061002D
:1000F000640000003A034E006700200059007500BC
:100100002000480065006E006700200061006E005E
:100110006400200048006F006E0067002000470068
:1001200075006F002000460065006E00670000004B
:100130000403090409022200010100C0320904007D
:100140000001030101000921110100012240000703
:100150000581030800051201100100000008EB03EF
:10016000422001000102000105010906A101050765
:1001700019E029E71500250175019508810295010F
:100180007508810105081901290595057501910278
:10019000950175039101150026FF00050719002937
:1001A000FF950675088100C011241FBECFEFDAE06D
:1001B000DEBFCDBF19E0A0E0B1E0E8EAF5E102C0A2
:1001C00005900D92A031B107D9F729E0A0E1B9E07F
:1001D00001C01D92AE32B207E1F70E9466010C9495
:1001E000D20A0C940000292F332723303105C9F09F
:1001F00040F42130310509F438C02230310561F076
:1002000006C02132310539F12232310549F180E051
:1002100090E020E030E032C082E290E024E331E080
:100220002DC099278130910551F018F0029769F09F
:1002300021C0E0E3F1E0849190E09F011FC0E4EF72
:10024000F0E0849190E09F0119C0E0ECF0E084912F
:1002500090E09F0113C089E090E026E431E00EC0F9
:1002600080E490E028E631E009C082E190E026E5F4
:1002700031E004C080E090E020E030E0FA0131831A
:100280002083089580E091E00E94C902089580E0F3
:1002900095E00E94C902089584B7877F84BF0FB696
:1002A000F894A89580916000886180936000109216
:1002B00060000FBE90E080E80FB6F8948093610074
:1002C000909361000FBE0E94C80508950E944C01E2
:1002D000789414B88FEF85B90E9430020E945C02B6
:1002E0002FEF81EE94E0215080409040E1F700C074
:1002F000000080E095E00E94170380E099E00E94F2
:10030000EB090E9476080E94DD028091130981307A
:1003100071F480911009813051F080912009811190
:1003200006C00E94420181E080931009E6CF8091CF
:1003300013098111E2CF809110098823F1F2809195
:1003400020098111DACF0E94470110921009D5CF00
:1003500080E099E00E94D609E2EEF0E080818460BE
:100360008083089580E099E00E9479080895809143
:100370000E0990910F09009729F0019790930F09AA
:1003800080930E098091110990911209892B49F0EF
:10039000809111099091120901979093120980930D
:1003A00011098091110990911209892B31F48091E2
:1003B0001309813011F41092130908950F931F93BC
:1003C00088E0F90111928A95E9F7199906C08EE142
:1003D000F901828391E081E002C090E080E01A9907
:1003E00007C0F901E80FF11D9FE192838F5F91E053
:1003F0001B9907C0F901E80FF11D90E292838F5F0E
:1004000091E01C9907C0F901E80FF11D91E2928378
:100410008F5F91E01D9907C0F901E80FF11D92E28D
:1004200092838F5F91E01E9906C0F901E80FF11DDC
:1004300083E2828391E0992349F081E0809313095C
:1004400084EF91E0909312098093110988E090E085
:10045000F8019183808380E01F910F9108950895A2
:1004600088E48093B80084E08093BC00089584EA17
:100470008093BC008091BC008823E4F7089584E950
:100480008093BC008091BC0084FDFCCF0895880F50
:100490008093BB0084E88093BC008091BC008823DB
:1004A000E4F708958093BB0084E88093BC008091BA
:1004B000BC008823E4F708950E9437028CE30E9471
:1004C000470280E00E9452028EEA0E94520285EDAD
:1004D0000E94520280E80E94520288EA0E94520260
:1004E0008FE30E94520283ED0E94520280E00E943C
:1004F000520280E40E9452028DE80E94520284E17E
:100500000E94520280E20E94520280E00E94520247
:1005100081EA0E94520288EC0E9452028AED0E94F7
:10052000520282E10E94520281E80E9452028FE749
:100530000E94520284EA0E94520286EA0E945202FB
:100540008FEA0E9452020E943F020895CF93DF93E8
:10055000D82FC62F0E9437028CE30E94470280E00A
:100560000E94520281E20E9452028D2F0E9452028A
:100570008FE70E94520282E20E9452028C2F0E9458
:10058000520287E00E9452020E943F02DF91CF9107
:1005900008952091200921110FC090931D09809387
:1005A0001C0910921F0910921E0981E080932009F6
:1005B00060E080E00E94A6020895CF938091200918
:1005C000882399F10E9437028CE30E94470280E45D
:1005D0000E945202C0E014C020911C0930911D09F4
:1005E000AC014F5F5F4F50931F0940931E09F90103
:1005F000E80FF91F80810E9452020E947608CF5FA7
:10060000C03840F480911E0990911F09811524E0A3
:10061000920710F30E943F0280911E0990911F09DA
:100620008115944010F010922009CF9108950F93F6
:100630001F93CF93DF938C0160E080E00E94A602BD
:100640000E9437028CE30E94470280E40E9452021B
:1006500080E090E009C0EC012196F801E80FF91F55
:1006600080810E945202CE01811524E0920798F306
:100670000E943F02DF91CF911F910F910895CF9279
:10068000DF92EF92FF920F931F93CF93DF938C0132
:10069000EB016A010E944805811135C0C114D104E3
:1006A00039F0F60180819181C81BD90B080F191F01
:1006B000E12CF12C25C09091E80095FD18C0E8EEE2
:1006C000F0E080818E7780830E947608C114D10487
:1006D00049F0F60180819181E80EF91EF182E082F5
:1006E00085E011C00E944805882351F00CC0F80134
:1006F00081918F018093F1002197FFEFEF1AFF0A9C
:100700002097C9F680E0DF91CF911F910F91FF9064
:10071000EF90DF90CF90089520912C0930912D0912
:100720002617370758F06115710539F4E8EEF0E047
:1007300020812E7720839B0101C09B01E82FF92F98
:1007400040E032C080912509882309F443C08530F8
:1007500009F442C08091E80083FD40C08091E80028
:1007600082FD32C08091E80080FF1EC08091F300BE
:1007700090E0982F88274091F200842B06C0419189
:100780004093F1002150310901962115310519F0EE
:1007900088309105A0F341E0089709F040E0A8EE09
:1007A000B0E08C918E778C932115310559F641116B
:1007B000C9CF0AC080912509882391F0853091F036
:1007C0008091E80083FD10C08091E80082FFF2CFA5
:1007D00080E0089582E0089583E0089581E008951F
:1007E00082E0089583E0089581E008956115710520
:1007F00029F4E8EEF0E020812B772083E82FF92F11
:1008000026C080912509882391F1853091F180914E
:10081000E80083FD30C08091E80082FF18C005C069
:100820008091F1008193615071096115710551F05A
:100830008091F30090E0982F88272091F200822B7E
:10084000892B71F7A8EEB0E08C918B778C936115B2
:100850007105B9F606C080912509882371F08530AD
:1008600071F08091E80080FFF6CF80E0089582E08B
:10087000089583E0089581E0089582E0089583E07B
:10088000089520912C0930912D092617370758F02B
:100890006115710539F4E8EEF0E020812E772083B0
:1008A0009B0101C09B01E82FF92F40E033C08091EC
:1008B0002509882309F444C0853009F443C0809198
:1008C000E80083FD41C08091E80082FD33C0809143
:1008D000E80080FF1FC08091F30090E0982F8827E8
:1008E0004091F200842B07C044914093F10031966F
:1008F0002150310901962115310519F088309105F3
:1009000098F341E0089709F040E0A8EEB0E08C9140
:100910008E778C932115310551F64111C8CF0AC04D
:1009200080912509882391F0853091F08091E8002D
:1009300083FD10C08091E80082FFF2CF80E008952F
:1009400082E0089583E0089581E0089582E00895AB
:1009500083E0089581E00895982F29C0292F2F70F2
:100960002093E900981739F07091EC002091ED0088
:100970005091F00003C0242F762F50E021FF16C0C5
:10098000EBEEF0E030813E7F3083ADEEB0E03C91A5
:100990003D7F3C933081316030837093EC002C9329
:1009A0005093F0002091EE00222344F49F5F973093
:1009B000A8F28F708093E90081E0089580E00895A7
:1009C0000F931F93CF93DF93EC01062F10E037C0F6
:1009D000E12FF0E0CF01880F991F880F991FE80FD2
:1009E000F91FEC0FFD1F5081552341F19481A18126
:1009F000B2816381852F8F708730E8F4923010F0D8
:100A000046E001C042E028E030E090E003C09F5F94
:100A1000220F331F2A173B07D0F39295907F20E4D3
:100A2000629FB0011124551F5527551F492B652B77
:100A30000E94AC0401C080E0882321F01F5F1017E2
:100A400038F281E0DF91CF911F910F91089580914D
:100A5000260988239CF404C0809125098823B9F0D5
:100A60008091E80082FFF8CFE8EEF0E080818B779C
:100A70008083089580912509882349F08091E800BA
:100A800080FFF8CFE8EEF0E080818E7780830895D4
:100A90002091E4003091E50044E602C09C01452F1E
:100AA0008091EC00982F917080FD90E8903829F4A7
:100AB0008091E80080FF05C01BC08091E80082FDA6
:100AC00019C0809125098823B9F08530B9F080914B
:100AD000EB0085FD15C08091E4009091E50028179A
:100AE0003907F1F25FEF540F4111D8CF84E0089538
:100AF00080E0089580E0089582E0089583E00895FD
:100B000081E00895CF93DF93109225091092210977
:100B10001092230910922209C0EED0E088818B7FC9
:100B20008883E8EDF0E080818160808342E060E0CE
:100B300080E00E94AC04E1EEF0E080818E7F808353
:100B4000E2EEF0E080818160808380818860808334
:100B500088818E7F8883DF91CF910895CF93DF9333
:100B60000E94DA050E94E205C8EDD0E088818F7707
:100B7000888388818068888388818F7D888319BC79
:100B80000E948205888180618883DF91CF910895DA
:100B9000E8EDF0E080818F7E8083E7EDF0E08081FA
:100BA0008160808384E082BF81E0809324090E9479
:100BB000AE050895E8EDF0E080818E7F808310928D
:100BC000E20008951092DA001092E10008951F9259
:100BD0000F920FB60F9211242F933F934F935F9371
:100BE0006F937F938F939F93AF93BF93EF93FF93F5
:100BF0008091E10082FF0BC08091E20082FF07C07C
:100C0000E1EEF0E080818B7F80830E94B7018091CC
:100C1000DA0080FF1FC08091D80080FF1BC0EAED82
:100C2000F0E080818E7F80838091D90080FF0DC0AD
:100C300080E189BD82E189BD09B400FEFDCF81E07C
:100C4000809325090E945A0805C019BC10922509F5
:100C50000E945A088091E10080FF17C08091E20055
:100C600080FF13C0E2EEF0E080818E7F8083808180
:100C700080618083E8EDF0E080818062808319BC30
:100C800085E0809325090E945A088091E10084FF45
:100C900030C08091E20084FF2CC080E189BD82E1F8
:100CA00089BD09B400FEFDCFE8EDF0E080818F7DC5
:100CB0008083E1EEF0E080818F7E8083E2EEF0E0E1
:100CC00080818F7E808380818160808380912109F3
:100CD000882321F084E08093250909C08091E300F6
:100CE000882314F483E001C081E0809325090E94E9
:100CF0005A088091E10083FF20C08091E20083FFC9
:100D00001CC0E1EEF0E08081877F808382E08093E9
:100D100025091092210980818E7F8083E2EEF0E028
:100D200080818E7F808380818061808342E060E06B
:100D300080E00E94AC040E945A08FF91EF91BF919D
:100D4000AF919F918F917F916F915F914F913F9163
:100D50002F910F900FBE0F901F901895809126092C
:100D6000803819F0823871F008958091220981113C
:100D700002C090E001C091E080912309882381F0B6
:100D800092600EC080912A098F708730B8F4E9EE26
:100D9000F0E080839091EB0095FB992790F9108209
:100DA000E8EEF0E08081877F8083A1EFB0E09C9344
:100DB0001C9280818E7780830E9427050895809100
:100DC00026098F7119F0823071F0089580912809F9
:100DD000813009F040C090912709933009F080E0FC
:100DE000809323092FC08091280981112BC0809105
:100DF0002A098F709FEF980F963068F58093E9006D
:100E00009091EB0090FF1EC090912709933031F430
:100E1000EBEEF0E080818062808314C0EBEEF0E0C6
:100E200090819061908321E030E0A90102C0440FDD
:100E3000551F8A95E2F7AAEEB0E04C931C92808190
:100E4000886080831092E900E8EEF0E08081877F7F
:100E500080830E9427050895CF93C0912809CF77FA
:100E6000E3EEF0E0808180788C2B8083E8EEF0E088
:100E70008081877F80830E9427058091E80080FF22
:100E8000FCCFE3EEF0E0808180688083CC2311F01A
:100E900083E001C082E080932509CF910895E8EEB8
:100EA000F0E08081877F8083809121098093F10029
:100EB00080818E7780830E94270508950F931F936A
:100EC000CF93DF93CDB7DEB7AA970FB6F894DEBF06
:100ED0000FBECDBF83E08A838AE289833FB7F8944F
:100EE00090E02EE020C0E22FF0E081E280935700F6
:100EF000E49190FF03C0E295EF702F5FEF70A92F90
:100F0000B0E0AA0FBB1F43E050E04C0F5D1FA40FE1
:100F1000B51FEA3018F0F0E0F79602C0F0E0F09666
:100F2000ED93FC939F5F9431F0F23FBF08EE10E029
:100F3000F8018081877F80836AE270E0CE010196AC
:100F40000E948C03F80180818B778083AA960FB66C
:100F5000F894DEBF0FBECDBFDF91CF911F910F91EF
:100F600008950F931F93CF93DF9300D0CDB7DEB7D3
:100F700080912809909129098C3D23E0920719F46A
:100F80000E945E071AC060912A0970912B09AE0178
:100F90004F5F5F4F0E94F300009779F008EE10E07A
:100FA000F8012081277F2083BC0189819A810E94DA
:100FB0004104F80180818B7780830F900F90DF913F
:100FC000CF911F910F91089580912809909129093F
:100FD00099270297F4F4E8EEF0E08081877F808320
:100FE00080912809809321090E9427058091210979
:100FF000882321F084E08093250909C08091E300D3
:10100000882314F484E001C081E0809325090E94C4
:10101000A801089580E0E6E2F9E005C09091F100B2
:1010200090838F5F31968830C8F30E94B20180911F
:10103000E80083FF30C0E6E2F9E02081E1818E2FF5
:1010400090E08A30910538F5FC01EA5AFF4F0C9484
:10105000AF0A203811F02238F1F40E94AE061BC00E
:10106000222311F02230B9F40E94DF0614C02111AE
:1010700012C00E942C070FC02058223060F40E943A
:10108000B10709C0203839F40E944F0704C021116C
:1010900002C00E94E4078091E80083FF0AC0E8EEE6
:1010A000F0E08081877F8083EBEEF0E080818062DA
:1010B000808308950895CF93809125098823A1F016
:1010C000C091E900CF708091EC00982F917080FD65
:1010D00090E8C92B1092E9008091E80083FD0E94FE
:1010E0000A08CF70C093E900CF9108950E945B0871
:1010F00008953F924F925F926F927F928F929F924C
:10110000AF92BF92CF92DF92EF92FF920F931F9315
:10111000CF93DF9300D01F92CDB7DEB76C01EDB651
:10112000FEB68091E80083FF27C120912A09309103
:101130002B09F601808190E02817390709F01CC1BE
:1011400080912709833009F4AEC030F4813071F00A
:10115000823009F4F4C010C18A3009F4D3C08B3056
:1011600009F4BBC0893009F007C154C08091260939
:10117000813A09F001C1ADB6BEB61A821982E6E223
:10118000F9E0828173808B837A94F601408550E088
:101190008DB79EB7841B950B0FB6F8949EBF0FBEFC
:1011A0008DBFEDB7FEB731964F0160E070E0CF0123
:1011B0000E94CB0A8E010F5F1F4F9401472DBE0185
:1011C0006D5F7F4FC6010E94DE01F6018681978127
:1011D000009729F0408550E0B4010E94C20A1092A5
:1011E000E900E8EEF0E08081877F80838B818111C8
:1011F0008093F10069817A81C4010E948C03E8EE3A
:10120000F0E080818B7780830FB6F894BEBE0FBE6E
:10121000ADBEB2C080912609813209F0ADC06DB675
:101220007EB6E6E2F9E00681178142805380342CD5
:101230005A948DB79EB7801B910B0FB6F8949EBF42
:101240000FBE8DBFEDB7FEB731964F010F2EF8EEF2
:10125000AF2EB12CF02DF5018081877F8083B801FE
:10126000C4010E94F603F50180818E7780834420BB
:1012700019F081E090E002C080E090E021E030E0F1
:10128000311002C020E030E0280D391D081B190B79
:10129000452D642DC6010E942F020FB6F8947EBE24
:1012A0000FBE6DBE69C080912609813A09F064C005
:1012B000E8EEF0E08081877F80838091E80080FF06
:1012C000FCCFF60181858093F100E8EEF0E08081AB
:1012D0008E7780830E9427054FC080912609813236
:1012E00009F04AC0E8EEF0E08081877F80830E94A9
:1012F00027059091280981E0911101C080E0F60155
:1013000081873AC0809126098132B1F5E8EEF0E09C
:101310008081877F80830E94270580912809909192
:10132000290988270024880F991F001C880F991FFE
:10133000001C892F902DF601958784871DC0809110
:101340002609813AC9F4E8EEF0E08081877F808346
:101350008091E80080FFFCCFF60184859585969505
:101360008795969587958093F100E8EEF0E080816F
:101370008E7780830E9427050FB6F894FEBE0FBEBD
:10138000EDBE0F900F900F90DF91CF911F910F91B5
:10139000FF90EF90DF90CF90BF90AF909F908F9095
:1013A0007F906F905F904F903F900895FC01399629
:1013B00027E0DF011D922A95E9F721E0FC01218752
:1013C00024EF31E03587248723E0248361E0019610
:1013D0000E94E00408955F926F927F928F929F9295
:1013E000AF92BF92CF92DF92EF92FF920F931F9333
:1013F000CF93DF9300D01F92CDB7DEB77C01ADB69F
:10140000BEB680912509843009F091C0F70122858C
:1014100033858091E4009091E5002817390709F49D
:1014200086C081818F708093E9008091E80085FFFC
:101430007EC08DB69EB6408550E08DB79EB7841BAA
:10144000950B0FB6F8949EBF0FBE8DBFEDB7FEB7DC
:1014500031966F011B821A82198260E070E0CF0121
:101460000E94CB0A8E010F5F1F4F960140E0BE0124
:101470006D5F7F4FC7010E94DE01682EF7018485F2
:101480009585892B31F086859785892B21F080E021
:1014900003C080E001C081E08170782EF7010681F1
:1014A00017810115110599F049815A81B801C601CA
:1014B0000E94B50A55245394892B09F4512CF70145
:1014C000408550E0B601C8010E94C20A01C0512CFB
:1014D00089819A81892BF9F0611004C0511002C0F2
:1014E0007720C9F0F7018485958597878687818164
:1014F0008F708093E9008B8181118093F100698165
:101500007A8140E050E0C6010E943F03E8EEF0E03F
:1015100080818E7780838091E4009091E500F701CF
:10152000938782870FB6F8949EBE0FBE8DBE0FB60E
:10153000F894BEBE0FBEADBE0F900F900F90DF911E
:10154000CF911F910F91FF90EF90DF90CF90BF90C0
:10155000AF909F908F907F906F905F900895EE0F67
:10156000FF1F0590F491E02D0994FB01DC0104C0FC
:101570008D910190801921F441505040C8F7881B8B
:10158000990B0895FB01DC0102C001900D924150BE
:101590005040D8F70895DC0101C06D934150504090
:0815A000E0F70895F894FFCF75
:1015A800FFFFFFFFFFFFFFFFFFFFFFFFFFFFFFFF43
:1015B800FFFFFFFFFFFFFFFFFFFFFFFFFFFFFFFF33
:1015C800FFFFFFFFFFFFFFFFFFFFFFFFFFFFFFFF23
:1015D800FFFFFFFFFFFFFFFFFFFFFFFFFFFFFFFF13
:1015E800FFFFFFFFFFFFFFFFFFFFFFFFFFFFFFFF03
:1015F800FFFFFFFFFFFFFFFFFFFFFFFFFFFFFFFFF3
:10160800FFFFFFFFFFFFFFFFFFFFFFFFFFFFFFFFE2
:10161800FFFFFFFFFFFFFFFFFFFFFFFFFFFFFFFFD2
:10162800FFFFFFFFFFFFFFFFFFFFFFFFFFFFFFFFC2
:10163800FFFFFFFFFFFFFFFFFFFFFFFFFFFFFFFFB2
:10164800FFFFFFFFFFFFFFFFFFFFFFFFFFFFFFFFA2
:10165800FFFFFFFFFFFFFFFFFFFFFFFFFFFFFFFF92
:10166800FFFFFFFFFFFFFFFFFFFFFFFFFFFFFFFF82
:10167800FFFFFFFFFFFFFFFFFFFFFFFFFFFFFFFF72
:10168800FFFFFFFFFFFFFFFFFFFFFFFFFFFFFFFF62
:10169800FFFFFFFFFFFFFFFFFFFFFFFFFFFFFFFF52
:1016A800FFFFFFFFFFFFFFFFFFFFFFFFFFFFFFFF42
:1016B800FFFFFFFFFFFFFFFFFFFFFFFFFFFFFFFF32
:1016C800FFFFFFFFFFFFFFFFFFFFFFFFFFFFFFFF22
:1016D800FFFF3F3FCFCFF3F3F3F3CFCF3F3FFFFF02
:1016E800FFFFFFFFFFFFFFFFFFFFFFFFFFFFFFFF02
:1016F800FFFFFFFFFFFFFFFFFFFFFFFFFFFFFFFFF2
:10170800FFFFFFFFFFFFFFFFFFFFFFFFFFFFFFFFE1
:10171800FFFFFFFFFFFFFFFFFFFFFFFFFFFFFFFFD1
:10172800FFFFFFFFFFFFFFFFFFFFFFFFFFFFFFFFC1
:10173800FFFFFFFFFFFFFFFFFFFFFFFFFFFFFFFFB1
:10174800FFFFFFFFFFFFFFFFFFFF3F3FCFCFF3F399
:10175800FCFCFFFFFFFFFFFFFFFFFFFFFCFCFCFCA3
:10176800FCFCFCFCF3F3F3F3F3F3F3F3CFCFCFCFAD
:10177800CFCFF3F3F3F3F3F30303FFFFFFFFFFFF11
:10178800FFFFFFFFFFFFFFFFFFFFFFFFFFFFFFFF61
:10179800FFFFFFFFFFFFFFFFFFFFFFFFFFFFFFFF51
:1017A800FFFFFFFFFFFFFFFFFFFFFFFFFFFFFFFF41
:1017B800FFFFFFFFFFFFFFFFFFFFFFFFFFFFFFFF31
:1017C800FFFFFFFFFFFF0F0FF0F0FFFFFFFFFFFF1F
:1017D800FFFFFFFFC3C3C3C3FFFF3F3FFFFF3F3F01
:1017E800FFFFFFFFFFFFFFFFFFFF3F3F3F3FFFFF01
:1017F800FFFFFFFFFFFFFFFFF0F0CFCFFFFFFFFF6F
:10180800FFFFFFFFFFFFFFFFFFFFFFFFFFFFFFFFE0
:10181800FFFFFFFFFFFFFFFFFFFFFFFFFFFFFFFFD0
:10182800FFFFFFFFFFFFFFFFFFFFFFFFFFFFFFFFC0
:10183800FFFFFFFFFFFFFFFFFFFFFFFFFFFFFFFFB0
:10184800FFFFFFFFC0C03F3FFFFFFFFFFFFF3F3F1E
:101858003F3F0F0F3F3F3F3FFFFFFCFCFCFCFFFFFC
:10186800FCFCF3F3F3F3FCFCFFFF3C3CFCFCFFFF48
:10187800FFFFFFFFFFFFFFFFFFFFFFFFFFFFFFFF70
:10188800FFFFFFFFFFFFFFFFFFFFFFFFFFFFFFFF60
:10189800FFFFFFFFFFFFFFFFFFFFFFFFFFFFFFFF50
:1018A800FFFFFFFFFFFFFFFFFFFFFFFFFFFFFFFF40
:1018B800FFFFFFFFFFFFFFFFFFFFFFFFFFFFFFFF30
:1018C800FFFFFFFFFFFFFFFFFCFCFCFCFCFCFFFF32
:1018D800FFFFFFFFFFFFFFFFFCFCFCFCFCFCFCFC28
:1018E800FCFCFCFCFCFC0303F0F0FFFFFFFFFFFF28
:1018F800FFFF3F3F3F3FCFCFCFCFCFCFFFFFFFFF10
:10190800FFFFFFFFFFFFFFFFFFFFFFFFFFFFFFFFDF
:10191800FFFFFFFFFFFFFFFFFFFFFFFFFFFFFFFFCF
:10192800FFFFFFFFFFFFFFFFFFFFFFFFFFFFFFFFBF
:10193800FFFFFFFFFFFFFFFFFFFFFFFFFFFFFFFFAF
:10194800FFFFFFFFFFFFFFFFFFFFFFFFFFFFFFFF9F
:10195800FFFFFFFFFFFFFFFFFFFFFFFFFFFFFFFF8F
:10196800FFFFFFFFFFFFFFFFFCFCFCFCFCFCFCFC97
:10197800FCFCFFFFFFFFFFFFFFFFFFFFFFFFFFFF75
:10198800FFFFFFFFFFFFFFFFFFFFFFFFFFFFFFFF5F
:10199800FFFFFFFFFFFFFFFFFFFFFFFFFFFFFFFF4F
:1019A800FFFFFFFFFFFFFFFFFFFFFFFFFFFFFFFF3F
:1019B800FFFFFFFFFFFFFFFFFFFFFFFFFFFFFFFF2F
:1019C800FFFFFFFFFFFFFFFFFFFFFFFFFFFFFFFF1F
:1019D800FFFFFFFFFFFFFFFFFFFFFFFFFFFFFFFF0F
:1019E800FFFFFFFFFFFFFFFFFFFFFFFFFFFFFFFFFF
:1019F800FFFFFFFFFFFFFFFFFFFFFFFFFFFFFFFFEF
:101A0800FFFFFFFFFFFFFFFFFFFFFFFFFFFFFFFFDE
:101A1800FFFFFFFFFFFFFFFFFFFFFFFFFFFFFFFFCE
:101A2800FFFFFFFFFFFFFFFFFFFFFFFFFFFFFFFFBE
:101A3800FFFFFFFFFFFFFFFFFFFFFFFFFFFFFFFFAE
:101A4800FFFFFFFFFFFFFFFFFFFFFFFFFFFFFFFF9E
:101A5800FFFFFFFFFFFFFFFFFFFFFFFFFFFFFFFF8E
:101A6800FFFFFFFFFFFFFFFFFFFFFFFFFFFFFFFF7E
:101A7800FFFFFFFFFFFFFFFFFFFFFFFFFFFFFFFF6E
:101A8800FFFFFFFFFFFFFFFFFFFFFFFFFFFFFFFF5E
:101A9800FFFFFFFFFFFFFFFFFFFFFFFFFFFFFFFF4E
:101AA800FFFFFFFFFFFFFFFFFFFFFFFFFFFFFFFF3E
:101AB800FFFFFFFFFFFFFFFFFFFFFFFFFFFFFFFF2E
:101AC800FFFFFFFFFFFFFFFFFFFFFFFFFFFFFFFF1E
:101AD800FFFF3F3FCFCFF3F3F3F3CFCF3F3FFFFFFE
:101AE800FFFFFFFFFFFFFFFFFFFFFFFFFFFFFFFFFE
:101AF800FFFFFFFFFFFFFFFFFFFFFFFFFFFFFFFFEE
:101B0800FFFFFFFFFFFFFFFFFFFFFFFFFFFFFFFFDD
:101B1800FFFFFFFFFFFFFFFFFFFFFFFFFFFFFFFFCD
:101B2800FFFFFFFFFFFFFFFFFFFFFFFFFFFFFFFFBD
:101B3800FFFFFFFFFFFFFFFFFFFFFFFFFFFFFFFFAD
:101B4800FFFFFFFFFFFF3F3FCFCFF3F3F3F3F3F3C5
:101B58000C0CFFFFFFFFFFFFFFFFFFFFFCFCFCFC7F
:101B6800FCFCFCFCF3F3F3F3F3F3F3F3CFCFCFCFA9
:101B7800CFCFF3F3F3F3F3F30303FFFFFFFFFFFF0D
:101B8800FFFFFFFFFFFFFFFFFFFFFFFFFFFFFFFF5D
:101B9800FFFFFFFFFFFFFFFFFFFFFFFFFFFFFFFF4D
:101BA800FFFFFFFFFFFFFFFFFFFFFFFFFFFFFFFF3D
:101BB800FFFFFFFFFFFFFFFFFFFFFFFFFFFFFFFF2D
:101BC800FFFFFFFF0000FFFFFFFFFFFFFFFFFFFF1B
:101BD800FFFFFFFFC3C3C3C3FFFF3F3FFFFF3F3FFD
:101BE800FFFFFFFFFFFFFFFFFFFF3F3F3F3FFFFFFD
:101BF800FFFF3F3F3F3F3F3FF0F0CFCFFFFFFFFFEB
:101C0800FFFFFFFFFFFFFFFFFFFFFFFFFFFFFFFFDC
:101C1800FFFFFFFFFFFFFFFFFFFFFFFFFFFFFFFFCC
:101C2800FFFFFFFFFFFFFFFFFFFFFFFFFFFFFFFFBC
:101C3800FFFFFFFFFFFFFFFFFFFFFFFFFFFFFFFFAC
:101C4800FFFFFFFFC0C0CFCFCFCFCFCF3F3F3F3F3A
:101C58003F3F3F3F3F3F3F3FFFFFFCFCFCFCFFFF98
:101C6800FCFCF3F3F3F3FCFCFFFFFCFCFCFC0303BC
:101C7800FCFCFFFFFFFFFFFFFCFCC3C3FFFFFFFFF0
:101C8800FFFFFFFFFFFFFFFFFFFFFFFFFFFFFFFF5C
:101C9800FFFFFFFFFFFFFFFFFFFFFFFFFFFFFFFF4C
:101CA800FFFFFFFFFFFFFFFFFFFFFFFFFFFFFFFF3C
:101CB800FFFFFFFFFFFFFFFFFFFFFFFFFFFFFFFF2C
:101CC800FFFFFFFFFFFFFFFFFFFFFFFFFFFFFFFF1C
:101CD800FFFFFFFFFFFFFFFFFCFCFCFCFCFCFCFC24
:101CE800FCFCFCFCFCFCF3F3F3F3F3F3F3F3F0F08C
:101CF800F3F3F3F3CFCFCFCFCFCFCFCFFFFFFFFF9C
:101D0800FFFFFFFFFFFFFFFFFFFFFFFFFFFFFFFFDB
:101D1800FFFFFFFFFFFFFFFFFFFFFFFFFFFFFFFFCB
:101D2800FFFFFFFFFFFFFFFFFFFFFFFFFFFFFFFFBB
:101D3800FFFFFFFFFFFFFFFFFFFFFFFFFFFFFFFFAB
:101D4800FFFFFFFFFFFFFFFFFFFFFFFFFFFFFFFF9B
:101D5800FFFFFFFFFFFFFFFFFFFFFFFFFFFFFFFF8B
:101D6800FFFFFFFFFFFFFFFFFFFFFFFFFFFFFFFF7B
:101D7800FFFFFFFFFFFFFFFFFFFFFFFFFFFFFFFF6B
:101D8800FFFFFFFFFFFFFFFFFFFFFFFFFFFFFFFF5B
:101D9800FFFFFFFFFFFFFFFFFFFFFFFFFFFFFFFF4B
:101DA800008108000001140908000000000000007C
:00000001FF
